{
  "_format": "hh-sol-artifact-1",
  "contractName": "TokenizedBallot",
  "sourceName": "contracts/TokenizedBallot.sol",
  "abi": [
    {
      "inputs": [
        {
          "internalType": "bytes32[]",
          "name": "_proposalNames",
          "type": "bytes32[]"
        },
        {
          "internalType": "address",
          "name": "_tokenContract",
          "type": "address"
        },
        {
          "internalType": "uint256",
          "name": "_targetBlockNumber",
          "type": "uint256"
        }
      ],
      "stateMutability": "nonpayable",
      "type": "constructor"
    },
    {
      "inputs": [],
      "name": "getAllProposals",
      "outputs": [
        {
          "components": [
            {
              "internalType": "bytes32",
              "name": "name",
              "type": "bytes32"
            },
            {
              "internalType": "uint256",
              "name": "voteCount",
              "type": "uint256"
            }
          ],
          "internalType": "struct TokenizedBallot.Proposal[]",
          "name": "",
          "type": "tuple[]"
        }
      ],
      "stateMutability": "view",
      "type": "function"
    },
    {
      "inputs": [
        {
          "internalType": "uint256",
          "name": "",
          "type": "uint256"
        }
      ],
      "name": "proposals",
      "outputs": [
        {
          "internalType": "bytes32",
          "name": "name",
          "type": "bytes32"
        },
        {
          "internalType": "uint256",
          "name": "voteCount",
          "type": "uint256"
        }
      ],
      "stateMutability": "view",
      "type": "function"
    },
    {
      "inputs": [],
      "name": "targetBlockNumber",
      "outputs": [
        {
          "internalType": "uint256",
          "name": "",
          "type": "uint256"
        }
      ],
      "stateMutability": "view",
      "type": "function"
    },
    {
      "inputs": [],
      "name": "tokenContract",
      "outputs": [
        {
          "internalType": "contract IMyToken",
          "name": "",
          "type": "address"
        }
      ],
      "stateMutability": "view",
      "type": "function"
    },
    {
      "inputs": [
        {
          "internalType": "uint256",
          "name": "proposal",
          "type": "uint256"
        },
        {
          "internalType": "uint256",
          "name": "amount",
          "type": "uint256"
        }
      ],
      "name": "vote",
      "outputs": [],
      "stateMutability": "nonpayable",
      "type": "function"
    },
    {
      "inputs": [
        {
          "internalType": "address",
          "name": "",
          "type": "address"
        }
      ],
      "name": "votePowerSent",
      "outputs": [
        {
          "internalType": "uint256",
          "name": "",
          "type": "uint256"
        }
      ],
      "stateMutability": "view",
      "type": "function"
    },
    {
      "inputs": [],
      "name": "winnerName",
      "outputs": [
        {
          "internalType": "bytes32",
          "name": "winnerName_",
          "type": "bytes32"
        }
      ],
      "stateMutability": "view",
      "type": "function"
    },
    {
      "inputs": [],
      "name": "winningProposal",
      "outputs": [
        {
          "internalType": "uint256",
          "name": "winningProposal_",
          "type": "uint256"
        }
      ],
      "stateMutability": "view",
      "type": "function"
    }
  ],
  "bytecode": "0x60806040523480156200001157600080fd5b506040516200101a3803806200101a8339818101604052810190620000379190620003c0565b4381106200007c576040517f08c379a00000000000000000000000000000000000000000000000000000000081526004016200007390620004c2565b60405180910390fd5b816000806101000a81548173ffffffffffffffffffffffffffffffffffffffff021916908373ffffffffffffffffffffffffffffffffffffffff1602179055508060028190555060005b8351811015620001525760016040518060400160405280868481518110620000f357620000f2620004e4565b5b6020026020010151815260200160008152509080600181540180825580915050600190039060005260206000209060020201600090919091909150600082015181600001556020820151816001015550508080600101915050620000c6565b5050505062000513565b6000604051905090565b600080fd5b600080fd5b600080fd5b6000601f19601f8301169050919050565b7f4e487b7100000000000000000000000000000000000000000000000000000000600052604160045260246000fd5b620001c08262000175565b810181811067ffffffffffffffff82111715620001e257620001e162000186565b5b80604052505050565b6000620001f76200015c565b9050620002058282620001b5565b919050565b600067ffffffffffffffff82111562000228576200022762000186565b5b602082029050602081019050919050565b600080fd5b6000819050919050565b62000253816200023e565b81146200025f57600080fd5b50565b600081519050620002738162000248565b92915050565b6000620002906200028a846200020a565b620001eb565b90508083825260208201905060208402830185811115620002b657620002b562000239565b5b835b81811015620002e35780620002ce888262000262565b845260208401935050602081019050620002b8565b5050509392505050565b600082601f83011262000305576200030462000170565b5b81516200031784826020860162000279565b91505092915050565b600073ffffffffffffffffffffffffffffffffffffffff82169050919050565b60006200034d8262000320565b9050919050565b6200035f8162000340565b81146200036b57600080fd5b50565b6000815190506200037f8162000354565b92915050565b6000819050919050565b6200039a8162000385565b8114620003a657600080fd5b50565b600081519050620003ba816200038f565b92915050565b600080600060608486031215620003dc57620003db62000166565b5b600084015167ffffffffffffffff811115620003fd57620003fc6200016b565b5b6200040b86828701620002ed565b93505060206200041e868287016200036e565b92505060406200043186828701620003a9565b9150509250925092565b600082825260208201905092915050565b7f746172676574426c6f636b4e756d626572206d75737420626520696e2074686560008201527f2070617374000000000000000000000000000000000000000000000000000000602082015250565b6000620004aa6025836200043b565b9150620004b7826200044c565b604082019050919050565b60006020820190508181036000830152620004dd816200049b565b9050919050565b7f4e487b7100000000000000000000000000000000000000000000000000000000600052603260045260246000fd5b610af780620005236000396000f3fe608060405234801561001057600080fd5b50600436106100885760003560e01c8063a588e1131161005b578063a588e11314610118578063b384abef14610148578063cceb68f514610164578063e2ba53f01461018257610088565b8063013cf08b1461008d5780632a8cd29e146100be57806355a373d6146100dc578063609ff1bd146100fa575b600080fd5b6100a760048036038101906100a29190610581565b6101a0565b6040516100b59291906105d6565b60405180910390f35b6100c66101d4565b6040516100d391906105ff565b60405180910390f35b6100e46101da565b6040516100f19190610699565b60405180910390f35b6101026101fe565b60405161010f91906105ff565b60405180910390f35b610132600480360381019061012d91906106f2565b610280565b60405161013f91906105ff565b60405180910390f35b610162600480360381019061015d919061071f565b610298565b005b61016c61049f565b604051610179919061085b565b60405180910390f35b61018a610512565b604051610197919061087d565b60405180910390f35b600181815481106101b057600080fd5b90600052602060002090600202016000915090508060000154908060010154905082565b60025481565b60008054906101000a900473ffffffffffffffffffffffffffffffffffffffff1681565b6000806000905060005b60018054905081101561027b57816001828154811061022a57610229610898565b5b906000526020600020906002020160010154111561026e576001818154811061025657610255610898565b5b90600052602060002090600202016001015491508092505b8080600101915050610208565b505090565b60036020528060005260406000206000915090505481565b60018054905082106102df576040517f08c379a00000000000000000000000000000000000000000000000000000000081526004016102d690610924565b60405180910390fd5b80600360003373ffffffffffffffffffffffffffffffffffffffff1673ffffffffffffffffffffffffffffffffffffffff1681526020019081526020016000205460008054906101000a900473ffffffffffffffffffffffffffffffffffffffff1673ffffffffffffffffffffffffffffffffffffffff16633a46b1a8336002546040518363ffffffff1660e01b815260040161037d929190610953565b602060405180830381865afa15801561039a573d6000803e3d6000fd5b505050506040513d601f19601f820116820180604052508101906103be9190610991565b6103c891906109ed565b1015610409576040517f08c379a000000000000000000000000000000000000000000000000000000000815260040161040090610a6d565b60405180910390fd5b806001838154811061041e5761041d610898565b5b9060005260206000209060020201600101600082825461043e9190610a8d565b9250508190555080600360003373ffffffffffffffffffffffffffffffffffffffff1673ffffffffffffffffffffffffffffffffffffffff16815260200190815260200160002060008282546104949190610a8d565b925050819055505050565b60606001805480602002602001604051908101604052809291908181526020016000905b82821015610509578382906000526020600020906002020160405180604001604052908160008201548152602001600182015481525050815260200190600101906104c3565b50505050905090565b6000600161051e6101fe565b8154811061052f5761052e610898565b5b906000526020600020906002020160000154905090565b600080fd5b6000819050919050565b61055e8161054b565b811461056957600080fd5b50565b60008135905061057b81610555565b92915050565b60006020828403121561059757610596610546565b5b60006105a58482850161056c565b91505092915050565b6000819050919050565b6105c1816105ae565b82525050565b6105d08161054b565b82525050565b60006040820190506105eb60008301856105b8565b6105f860208301846105c7565b9392505050565b600060208201905061061460008301846105c7565b92915050565b600073ffffffffffffffffffffffffffffffffffffffff82169050919050565b6000819050919050565b600061065f61065a6106558461061a565b61063a565b61061a565b9050919050565b600061067182610644565b9050919050565b600061068382610666565b9050919050565b61069381610678565b82525050565b60006020820190506106ae600083018461068a565b92915050565b60006106bf8261061a565b9050919050565b6106cf816106b4565b81146106da57600080fd5b50565b6000813590506106ec816106c6565b92915050565b60006020828403121561070857610707610546565b5b6000610716848285016106dd565b91505092915050565b6000806040838503121561073657610735610546565b5b60006107448582860161056c565b92505060206107558582860161056c565b9150509250929050565b600081519050919050565b600082825260208201905092915050565b6000819050602082019050919050565b610794816105ae565b82525050565b6107a38161054b565b82525050565b6040820160008201516107bf600085018261078b565b5060208201516107d2602085018261079a565b50505050565b60006107e483836107a9565b60408301905092915050565b6000602082019050919050565b60006108088261075f565b610812818561076a565b935061081d8361077b565b8060005b8381101561084e57815161083588826107d8565b9750610840836107f0565b925050600181019050610821565b5085935050505092915050565b6000602082019050818103600083015261087581846107fd565b905092915050565b600060208201905061089260008301846105b8565b92915050565b7f4e487b7100000000000000000000000000000000000000000000000000000000600052603260045260246000fd5b600082825260208201905092915050565b7f50726f706f73616c20646f657374206e6f742065786973740000000000000000600082015250565b600061090e6018836108c7565b9150610919826108d8565b602082019050919050565b6000602082019050818103600083015261093d81610901565b9050919050565b61094d816106b4565b82525050565b60006040820190506109686000830185610944565b61097560208301846105c7565b9392505050565b60008151905061098b81610555565b92915050565b6000602082840312156109a7576109a6610546565b5b60006109b58482850161097c565b91505092915050565b7f4e487b7100000000000000000000000000000000000000000000000000000000600052601160045260246000fd5b60006109f88261054b565b9150610a038361054b565b9250828203905081811115610a1b57610a1a6109be565b5b92915050565b7f4e6f7420656e6f75676820766f74696e6720706f776572000000000000000000600082015250565b6000610a576017836108c7565b9150610a6282610a21565b602082019050919050565b60006020820190508181036000830152610a8681610a4a565b9050919050565b6000610a988261054b565b9150610aa38361054b565b9250828201905080821115610abb57610aba6109be565b5b9291505056fea26469706673582212205e3531995c67c60195ea8792142108c4e8c154a024506a2fe0f43442f767f62564736f6c63430008180033",
  "linkReferences": {},
  "deployedLinkReferences": {}
}